{
  "_format": "hh3-artifact-1",
  "contractName": "VehicleRegistry",
  "sourceName": "contracts/VehicleRegistry.sol",
  "abi": [
    {
      "inputs": [],
      "stateMutability": "nonpayable",
      "type": "constructor"
    },
    {
      "inputs": [],
      "name": "AccessControlBadConfirmation",
      "type": "error"
    },
    {
      "inputs": [
        {
          "internalType": "address",
          "name": "account",
          "type": "address"
        },
        {
          "internalType": "bytes32",
          "name": "neededRole",
          "type": "bytes32"
        }
      ],
      "name": "AccessControlUnauthorizedAccount",
      "type": "error"
    },
    {
      "inputs": [
        {
          "internalType": "address",
          "name": "sender",
          "type": "address"
        },
        {
          "internalType": "uint256",
          "name": "tokenId",
          "type": "uint256"
        },
        {
          "internalType": "address",
          "name": "owner",
          "type": "address"
        }
      ],
      "name": "ERC721IncorrectOwner",
      "type": "error"
    },
    {
      "inputs": [
        {
          "internalType": "address",
          "name": "operator",
          "type": "address"
        },
        {
          "internalType": "uint256",
          "name": "tokenId",
          "type": "uint256"
        }
      ],
      "name": "ERC721InsufficientApproval",
      "type": "error"
    },
    {
      "inputs": [
        {
          "internalType": "address",
          "name": "approver",
          "type": "address"
        }
      ],
      "name": "ERC721InvalidApprover",
      "type": "error"
    },
    {
      "inputs": [
        {
          "internalType": "address",
          "name": "operator",
          "type": "address"
        }
      ],
      "name": "ERC721InvalidOperator",
      "type": "error"
    },
    {
      "inputs": [
        {
          "internalType": "address",
          "name": "owner",
          "type": "address"
        }
      ],
      "name": "ERC721InvalidOwner",
      "type": "error"
    },
    {
      "inputs": [
        {
          "internalType": "address",
          "name": "receiver",
          "type": "address"
        }
      ],
      "name": "ERC721InvalidReceiver",
      "type": "error"
    },
    {
      "inputs": [
        {
          "internalType": "address",
          "name": "sender",
          "type": "address"
        }
      ],
      "name": "ERC721InvalidSender",
      "type": "error"
    },
    {
      "inputs": [
        {
          "internalType": "uint256",
          "name": "tokenId",
          "type": "uint256"
        }
      ],
      "name": "ERC721NonexistentToken",
      "type": "error"
    },
    {
      "anonymous": false,
      "inputs": [
        {
          "indexed": true,
          "internalType": "address",
          "name": "owner",
          "type": "address"
        },
        {
          "indexed": true,
          "internalType": "address",
          "name": "approved",
          "type": "address"
        },
        {
          "indexed": true,
          "internalType": "uint256",
          "name": "tokenId",
          "type": "uint256"
        }
      ],
      "name": "Approval",
      "type": "event"
    },
    {
      "anonymous": false,
      "inputs": [
        {
          "indexed": true,
          "internalType": "address",
          "name": "owner",
          "type": "address"
        },
        {
          "indexed": true,
          "internalType": "address",
          "name": "operator",
          "type": "address"
        },
        {
          "indexed": false,
          "internalType": "bool",
          "name": "approved",
          "type": "bool"
        }
      ],
      "name": "ApprovalForAll",
      "type": "event"
    },
    {
      "anonymous": false,
      "inputs": [
        {
          "indexed": true,
          "internalType": "bytes32",
          "name": "role",
          "type": "bytes32"
        },
        {
          "indexed": true,
          "internalType": "bytes32",
          "name": "previousAdminRole",
          "type": "bytes32"
        },
        {
          "indexed": true,
          "internalType": "bytes32",
          "name": "newAdminRole",
          "type": "bytes32"
        }
      ],
      "name": "RoleAdminChanged",
      "type": "event"
    },
    {
      "anonymous": false,
      "inputs": [
        {
          "indexed": true,
          "internalType": "bytes32",
          "name": "role",
          "type": "bytes32"
        },
        {
          "indexed": true,
          "internalType": "address",
          "name": "account",
          "type": "address"
        },
        {
          "indexed": true,
          "internalType": "address",
          "name": "sender",
          "type": "address"
        }
      ],
      "name": "RoleGranted",
      "type": "event"
    },
    {
      "anonymous": false,
      "inputs": [
        {
          "indexed": true,
          "internalType": "bytes32",
          "name": "role",
          "type": "bytes32"
        },
        {
          "indexed": true,
          "internalType": "address",
          "name": "account",
          "type": "address"
        },
        {
          "indexed": true,
          "internalType": "address",
          "name": "sender",
          "type": "address"
        }
      ],
      "name": "RoleRevoked",
      "type": "event"
    },
    {
      "anonymous": false,
      "inputs": [
        {
          "indexed": true,
          "internalType": "address",
          "name": "from",
          "type": "address"
        },
        {
          "indexed": true,
          "internalType": "address",
          "name": "to",
          "type": "address"
        },
        {
          "indexed": true,
          "internalType": "uint256",
          "name": "tokenId",
          "type": "uint256"
        }
      ],
      "name": "Transfer",
      "type": "event"
    },
    {
      "inputs": [],
      "name": "AUDITOR_ROLE",
      "outputs": [
        {
          "internalType": "bytes32",
          "name": "",
          "type": "bytes32"
        }
      ],
      "stateMutability": "view",
      "type": "function"
    },
    {
      "inputs": [],
      "name": "BURNER_ROLE",
      "outputs": [
        {
          "internalType": "bytes32",
          "name": "",
          "type": "bytes32"
        }
      ],
      "stateMutability": "view",
      "type": "function"
    },
    {
      "inputs": [],
      "name": "DEALER_ROLE",
      "outputs": [
        {
          "internalType": "bytes32",
          "name": "",
          "type": "bytes32"
        }
      ],
      "stateMutability": "view",
      "type": "function"
    },
    {
      "inputs": [],
      "name": "DEFAULT_ADMIN_ROLE",
      "outputs": [
        {
          "internalType": "bytes32",
          "name": "",
          "type": "bytes32"
        }
      ],
      "stateMutability": "view",
      "type": "function"
    },
    {
      "inputs": [],
      "name": "MINTER_ROLE",
      "outputs": [
        {
          "internalType": "bytes32",
          "name": "",
          "type": "bytes32"
        }
      ],
      "stateMutability": "view",
      "type": "function"
    },
    {
      "inputs": [],
      "name": "OWNER_ROLE",
      "outputs": [
        {
          "internalType": "bytes32",
          "name": "",
          "type": "bytes32"
        }
      ],
      "stateMutability": "view",
      "type": "function"
    },
    {
      "inputs": [],
      "name": "TRANSFER_ROLE",
      "outputs": [
        {
          "internalType": "bytes32",
          "name": "",
          "type": "bytes32"
        }
      ],
      "stateMutability": "view",
      "type": "function"
    },
    {
      "inputs": [],
      "name": "UPDATER_ROLE",
      "outputs": [
        {
          "internalType": "bytes32",
          "name": "",
          "type": "bytes32"
        }
      ],
      "stateMutability": "view",
      "type": "function"
    },
    {
      "inputs": [
        {
          "internalType": "address",
          "name": "to",
          "type": "address"
        },
        {
          "internalType": "uint256",
          "name": "tokenId",
          "type": "uint256"
        }
      ],
      "name": "approve",
      "outputs": [],
      "stateMutability": "nonpayable",
      "type": "function"
    },
    {
      "inputs": [
        {
          "internalType": "uint256",
          "name": "requestId",
          "type": "uint256"
        }
      ],
      "name": "approveVehicleRegistration",
      "outputs": [],
      "stateMutability": "nonpayable",
      "type": "function"
    },
    {
      "inputs": [
        {
          "internalType": "address",
          "name": "owner",
          "type": "address"
        }
      ],
      "name": "balanceOf",
      "outputs": [
        {
          "internalType": "uint256",
          "name": "",
          "type": "uint256"
        }
      ],
      "stateMutability": "view",
      "type": "function"
    },
    {
      "inputs": [
        {
          "internalType": "uint256",
          "name": "tokenId",
          "type": "uint256"
        }
      ],
      "name": "fetchVehicleCertificate",
      "outputs": [
        {
          "components": [
            {
              "internalType": "string",
              "name": "vin",
              "type": "string"
            },
            {
              "internalType": "string",
              "name": "make",
              "type": "string"
            },
            {
              "internalType": "string",
              "name": "model",
              "type": "string"
            },
            {
              "internalType": "uint16",
              "name": "manufactureYear",
              "type": "uint16"
            },
            {
              "internalType": "address",
              "name": "ownerAddress",
              "type": "address"
            },
            {
              "internalType": "uint256",
              "name": "registrationDate",
              "type": "uint256"
            },
            {
              "internalType": "address",
              "name": "issuerAddress",
              "type": "address"
            },
            {
              "internalType": "string",
              "name": "chasisNumber",
              "type": "string"
            },
            {
              "internalType": "string",
              "name": "engineNumber",
              "type": "string"
            }
          ],
          "internalType": "struct VehicleRegistry.VehicleCertificate",
          "name": "",
          "type": "tuple"
        }
      ],
      "stateMutability": "view",
      "type": "function"
    },
    {
      "inputs": [
        {
          "internalType": "uint256",
          "name": "requestId",
          "type": "uint256"
        }
      ],
      "name": "fetchVehicleRegistrationRequest",
      "outputs": [
        {
          "components": [
            {
              "internalType": "string",
              "name": "vin",
              "type": "string"
            },
            {
              "internalType": "string",
              "name": "make",
              "type": "string"
            },
            {
              "internalType": "string",
              "name": "model",
              "type": "string"
            },
            {
              "internalType": "uint16",
              "name": "manufactureYear",
              "type": "uint16"
            },
            {
              "internalType": "address",
              "name": "ownerAddress",
              "type": "address"
            },
            {
              "internalType": "address",
              "name": "requesterAddress",
              "type": "address"
            },
            {
              "internalType": "uint256",
              "name": "registrationDate",
              "type": "uint256"
            },
            {
              "internalType": "address",
              "name": "issuerAddress",
              "type": "address"
            },
            {
              "internalType": "string",
              "name": "chasisNumber",
              "type": "string"
            },
            {
              "internalType": "string",
              "name": "engineNumber",
              "type": "string"
            },
            {
              "internalType": "bool",
              "name": "approved",
              "type": "bool"
            },
            {
              "internalType": "bool",
              "name": "minted",
              "type": "bool"
            }
          ],
          "internalType": "struct VehicleRegistry.VehicleRegistration",
          "name": "",
          "type": "tuple"
        }
      ],
      "stateMutability": "view",
      "type": "function"
    },
    {
      "inputs": [
        {
          "internalType": "uint256",
          "name": "tokenId",
          "type": "uint256"
        }
      ],
      "name": "getApproved",
      "outputs": [
        {
          "internalType": "address",
          "name": "",
          "type": "address"
        }
      ],
      "stateMutability": "view",
      "type": "function"
    },
    {
      "inputs": [
        {
          "internalType": "bytes32",
          "name": "role",
          "type": "bytes32"
        }
      ],
      "name": "getRoleAdmin",
      "outputs": [
        {
          "internalType": "bytes32",
          "name": "",
          "type": "bytes32"
        }
      ],
      "stateMutability": "view",
      "type": "function"
    },
    {
      "inputs": [
        {
          "internalType": "bytes32",
          "name": "role",
          "type": "bytes32"
        },
        {
          "internalType": "address",
          "name": "account",
          "type": "address"
        }
      ],
      "name": "grantRole",
      "outputs": [],
      "stateMutability": "nonpayable",
      "type": "function"
    },
    {
      "inputs": [
        {
          "internalType": "bytes32",
          "name": "role",
          "type": "bytes32"
        },
        {
          "internalType": "address",
          "name": "account",
          "type": "address"
        }
      ],
      "name": "hasRole",
      "outputs": [
        {
          "internalType": "bool",
          "name": "",
          "type": "bool"
        }
      ],
      "stateMutability": "view",
      "type": "function"
    },
    {
      "inputs": [
        {
          "internalType": "address",
          "name": "owner",
          "type": "address"
        },
        {
          "internalType": "address",
          "name": "operator",
          "type": "address"
        }
      ],
      "name": "isApprovedForAll",
      "outputs": [
        {
          "internalType": "bool",
          "name": "",
          "type": "bool"
        }
      ],
      "stateMutability": "view",
      "type": "function"
    },
    {
      "inputs": [],
      "name": "name",
      "outputs": [
        {
          "internalType": "string",
          "name": "",
          "type": "string"
        }
      ],
      "stateMutability": "view",
      "type": "function"
    },
    {
      "inputs": [
        {
          "internalType": "uint256",
          "name": "tokenId",
          "type": "uint256"
        }
      ],
      "name": "ownerOf",
      "outputs": [
        {
          "internalType": "address",
          "name": "",
          "type": "address"
        }
      ],
      "stateMutability": "view",
      "type": "function"
    },
    {
      "inputs": [
        {
          "internalType": "bytes32",
          "name": "role",
          "type": "bytes32"
        },
        {
          "internalType": "address",
          "name": "callerConfirmation",
          "type": "address"
        }
      ],
      "name": "renounceRole",
      "outputs": [],
      "stateMutability": "nonpayable",
      "type": "function"
    },
    {
      "inputs": [
        {
          "internalType": "string",
          "name": "vin",
          "type": "string"
        },
        {
          "internalType": "string",
          "name": "make",
          "type": "string"
        },
        {
          "internalType": "string",
          "name": "model",
          "type": "string"
        },
        {
          "internalType": "uint16",
          "name": "manufactureYear",
          "type": "uint16"
        },
        {
          "internalType": "address",
          "name": "ownerAddress",
          "type": "address"
        },
        {
          "internalType": "string",
          "name": "chasisNumber",
          "type": "string"
        },
        {
          "internalType": "string",
          "name": "engineNumber",
          "type": "string"
        }
      ],
      "name": "requestVehicleRegistration",
      "outputs": [
        {
          "internalType": "uint256",
          "name": "",
          "type": "uint256"
        }
      ],
      "stateMutability": "nonpayable",
      "type": "function"
    },
    {
      "inputs": [
        {
          "internalType": "bytes32",
          "name": "role",
          "type": "bytes32"
        },
        {
          "internalType": "address",
          "name": "account",
          "type": "address"
        }
      ],
      "name": "revokeRole",
      "outputs": [],
      "stateMutability": "nonpayable",
      "type": "function"
    },
    {
      "inputs": [
        {
          "internalType": "address",
          "name": "from",
          "type": "address"
        },
        {
          "internalType": "address",
          "name": "to",
          "type": "address"
        },
        {
          "internalType": "uint256",
          "name": "tokenId",
          "type": "uint256"
        }
      ],
      "name": "safeTransferFrom",
      "outputs": [],
      "stateMutability": "nonpayable",
      "type": "function"
    },
    {
      "inputs": [
        {
          "internalType": "address",
          "name": "from",
          "type": "address"
        },
        {
          "internalType": "address",
          "name": "to",
          "type": "address"
        },
        {
          "internalType": "uint256",
          "name": "tokenId",
          "type": "uint256"
        },
        {
          "internalType": "bytes",
          "name": "data",
          "type": "bytes"
        }
      ],
      "name": "safeTransferFrom",
      "outputs": [],
      "stateMutability": "nonpayable",
      "type": "function"
    },
    {
      "inputs": [
        {
          "internalType": "address",
          "name": "operator",
          "type": "address"
        },
        {
          "internalType": "bool",
          "name": "approved",
          "type": "bool"
        }
      ],
      "name": "setApprovalForAll",
      "outputs": [],
      "stateMutability": "nonpayable",
      "type": "function"
    },
    {
      "inputs": [
        {
          "internalType": "bytes4",
          "name": "interfaceId",
          "type": "bytes4"
        }
      ],
      "name": "supportsInterface",
      "outputs": [
        {
          "internalType": "bool",
          "name": "",
          "type": "bool"
        }
      ],
      "stateMutability": "view",
      "type": "function"
    },
    {
      "inputs": [],
      "name": "symbol",
      "outputs": [
        {
          "internalType": "string",
          "name": "",
          "type": "string"
        }
      ],
      "stateMutability": "view",
      "type": "function"
    },
    {
      "inputs": [
        {
          "internalType": "uint256",
          "name": "tokenId",
          "type": "uint256"
        }
      ],
      "name": "tokenURI",
      "outputs": [
        {
          "internalType": "string",
          "name": "",
          "type": "string"
        }
      ],
      "stateMutability": "view",
      "type": "function"
    },
    {
      "inputs": [
        {
          "internalType": "address",
          "name": "from",
          "type": "address"
        },
        {
          "internalType": "address",
          "name": "to",
          "type": "address"
        },
        {
          "internalType": "uint256",
          "name": "tokenId",
          "type": "uint256"
        }
      ],
      "name": "transferFrom",
      "outputs": [],
      "stateMutability": "nonpayable",
      "type": "function"
    },
    {
      "inputs": [
        {
          "internalType": "uint256",
          "name": "",
          "type": "uint256"
        }
      ],
      "name": "vehicleCertificates",
      "outputs": [
        {
          "internalType": "string",
          "name": "vin",
          "type": "string"
        },
        {
          "internalType": "string",
          "name": "make",
          "type": "string"
        },
        {
          "internalType": "string",
          "name": "model",
          "type": "string"
        },
        {
          "internalType": "uint16",
          "name": "manufactureYear",
          "type": "uint16"
        },
        {
          "internalType": "address",
          "name": "ownerAddress",
          "type": "address"
        },
        {
          "internalType": "uint256",
          "name": "registrationDate",
          "type": "uint256"
        },
        {
          "internalType": "address",
          "name": "issuerAddress",
          "type": "address"
        },
        {
          "internalType": "string",
          "name": "chasisNumber",
          "type": "string"
        },
        {
          "internalType": "string",
          "name": "engineNumber",
          "type": "string"
        }
      ],
      "stateMutability": "view",
      "type": "function"
    },
    {
      "inputs": [
        {
          "internalType": "uint256",
          "name": "",
          "type": "uint256"
        }
      ],
      "name": "vehicleRegistrations",
      "outputs": [
        {
          "internalType": "string",
          "name": "vin",
          "type": "string"
        },
        {
          "internalType": "string",
          "name": "make",
          "type": "string"
        },
        {
          "internalType": "string",
          "name": "model",
          "type": "string"
        },
        {
          "internalType": "uint16",
          "name": "manufactureYear",
          "type": "uint16"
        },
        {
          "internalType": "address",
          "name": "ownerAddress",
          "type": "address"
        },
        {
          "internalType": "address",
          "name": "requesterAddress",
          "type": "address"
        },
        {
          "internalType": "uint256",
          "name": "registrationDate",
          "type": "uint256"
        },
        {
          "internalType": "address",
          "name": "issuerAddress",
          "type": "address"
        },
        {
          "internalType": "string",
          "name": "chasisNumber",
          "type": "string"
        },
        {
          "internalType": "string",
          "name": "engineNumber",
          "type": "string"
        },
        {
          "internalType": "bool",
          "name": "approved",
          "type": "bool"
        },
        {
          "internalType": "bool",
          "name": "minted",
          "type": "bool"
        }
      ],
      "stateMutability": "view",
      "type": "function"
    }
  ],
  "bytecode": "0x608060405234801561000f575f5ffd5b506040518060400160405280600f81526020016e56656869636c65526567697374727960881b8152506040518060400160405280600381526020016256524560e81b815250815f908161006291906102f6565b50600161006f82826102f6565b5061007e91505f9050336101b1565b506100a97f9f2df0fed2c77648de5860a4cc508cd0818c85b8b8a1ab4ceeef8d981c8956a6336101b1565b506100d47f3c11d16cbaffd01df69ce1c404f6340ee057498f5f00246190ea54220576a848336101b1565b506100ff7f8502233096d909befbda0999bb8ea2f3a6be3c138b9fbf003752a4c8bce86f6c336101b1565b5061012a7f73e573f9566d61418a34d5de3ff49360f9c51fec37f7486551670290f6285dab336101b1565b506101557fcf75f067314df4d0527f2a9e12148d8bd7c8a3f7235b2171d24fa195d2c3ecb9336101b1565b506101807fb19546dff01e856fb3f010c267a7b1c60363cf8a4664e21cc89c26224620214e336101b1565b506101ab7f59a1c48e5837ad7a7f3dcedcbe129bf3249ec4fbf651fd4f5e2600ead39fe2f5336101b1565b506103b0565b5f8281526006602090815260408083206001600160a01b038516845290915281205460ff16610255575f8381526006602090815260408083206001600160a01b03861684529091529020805460ff1916600117905561020d3390565b6001600160a01b0316826001600160a01b0316847f2f8788117e7eff1d82e926ec794901d17c78024a50270940304540a733656f0d60405160405180910390a4506001610258565b505f5b92915050565b634e487b7160e01b5f52604160045260245ffd5b600181811c9082168061028657607f821691505b6020821081036102a457634e487b7160e01b5f52602260045260245ffd5b50919050565b601f8211156102f157805f5260205f20601f840160051c810160208510156102cf5750805b601f840160051c820191505b818110156102ee575f81556001016102db565b50505b505050565b81516001600160401b0381111561030f5761030f61025e565b6103238161031d8454610272565b846102aa565b6020601f821160018114610355575f831561033e5750848201515b5f19600385901b1c1916600184901b1784556102ee565b5f84815260208120601f198516915b828110156103845787850151825560209485019460019092019101610364565b50848210156103a157868401515f19600387901b60f8161c191681555b50505050600190811b01905550565b613002806103bd5f395ff3fe608060405234801561000f575f5ffd5b50600436106101e7575f3560e01c80636e1d616e11610109578063b88d4fde1161009e578063d67b04321161006e578063d67b0432146104dd578063e58378bb146104f0578063e985e9c514610517578063ee2c29b01461052a575f5ffd5b8063b88d4fde1461047d578063c87b56dd14610490578063d5391393146104a3578063d547741f146104ca575f5ffd5b806395d89b41116100d957806395d89b411461043b5780639f20120a14610443578063a217fddf14610463578063a22cb4651461046a575f5ffd5b80636e1d616e146103ce57806370a08231146103f55780638e0219941461040857806391d1485414610428575f5ffd5b80632f2ff15d1161017f57806347e633801161014f57806347e63380146103595780634a13983c14610380578063623affd3146103a85780636352211e146103bb575f5ffd5b80632f2ff15d146102f957806334d6ff4c1461030c57806336568abe1461033357806342842e0e14610346575f5ffd5b8063206b60f9116101ba578063206b60f91461026857806323b872dd1461029d578063248a9ca3146102b0578063282c51f3146102d2575f5ffd5b806301ffc9a7146101eb57806306fdde0314610213578063081812fc14610228578063095ea7b314610253575b5f5ffd5b6101fe6101f936600461269f565b610555565b60405190151581526020015b60405180910390f35b61021b610565565b60405161020a91906126e8565b61023b6102363660046126fa565b6105f4565b6040516001600160a01b03909116815260200161020a565b61026661026136600461272c565b61061b565b005b61028f7f8502233096d909befbda0999bb8ea2f3a6be3c138b9fbf003752a4c8bce86f6c81565b60405190815260200161020a565b6102666102ab366004612754565b61062a565b61028f6102be3660046126fa565b5f9081526006602052604090206001015490565b61028f7f3c11d16cbaffd01df69ce1c404f6340ee057498f5f00246190ea54220576a84881565b61026661030736600461278e565b6106b8565b61028f7fcf75f067314df4d0527f2a9e12148d8bd7c8a3f7235b2171d24fa195d2c3ecb981565b61026661034136600461278e565b6106dc565b610266610354366004612754565b610714565b61028f7f73e573f9566d61418a34d5de3ff49360f9c51fec37f7486551670290f6285dab81565b61039361038e3660046126fa565b61072e565b60405161020a999897969594939291906127b8565b6102666103b63660046126fa565b610a27565b61023b6103c93660046126fa565b610f05565b61028f7f59a1c48e5837ad7a7f3dcedcbe129bf3249ec4fbf651fd4f5e2600ead39fe2f581565b61028f610403366004612853565b610f0f565b61041b6104163660046126fa565b610f54565b60405161020a919061286c565b6101fe61043636600461278e565b6112ec565b61021b611316565b6104566104513660046126fa565b611325565b60405161020a919061295c565b61028f5f81565b610266610478366004612a87565b6117bb565b61026661048b366004612b4b565b6117c6565b61021b61049e3660046126fa565b6117de565b61028f7f9f2df0fed2c77648de5860a4cc508cd0818c85b8b8a1ab4ceeef8d981c8956a681565b6102666104d836600461278e565b61184f565b61028f6104eb366004612bf1565b611873565b61028f7fb19546dff01e856fb3f010c267a7b1c60363cf8a4664e21cc89c26224620214e81565b6101fe610525366004612cf4565b611ad1565b61053d6105383660046126fa565b611afe565b60405161020a9c9b9a99989796959493929190612d1c565b5f61055f82611e13565b92915050565b60605f805461057390612def565b80601f016020809104026020016040519081016040528092919081815260200182805461059f90612def565b80156105ea5780601f106105c1576101008083540402835291602001916105ea565b820191905f5260205f20905b8154815290600101906020018083116105cd57829003601f168201915b5050505050905090565b5f6105fe82611e37565b505f828152600460205260409020546001600160a01b031661055f565b610626828233611e6f565b5050565b6001600160a01b03821661065857604051633250574960e11b81525f60048201526024015b60405180910390fd5b5f610664838333611e7c565b9050836001600160a01b0316816001600160a01b0316146106b2576040516364283d7b60e01b81526001600160a01b038086166004830152602482018490528216604482015260640161064f565b50505050565b5f828152600660205260409020600101546106d281611f6e565b6106b28383611f7b565b6001600160a01b03811633146107055760405163334bd91960e11b815260040160405180910390fd5b61070f828261200c565b505050565b61070f83838360405180602001604052805f8152506117c6565b60076020525f908152604090208054819061074890612def565b80601f016020809104026020016040519081016040528092919081815260200182805461077490612def565b80156107bf5780601f10610796576101008083540402835291602001916107bf565b820191905f5260205f20905b8154815290600101906020018083116107a257829003601f168201915b5050505050908060010180546107d490612def565b80601f016020809104026020016040519081016040528092919081815260200182805461080090612def565b801561084b5780601f106108225761010080835404028352916020019161084b565b820191905f5260205f20905b81548152906001019060200180831161082e57829003601f168201915b50505050509080600201805461086090612def565b80601f016020809104026020016040519081016040528092919081815260200182805461088c90612def565b80156108d75780601f106108ae576101008083540402835291602001916108d7565b820191905f5260205f20905b8154815290600101906020018083116108ba57829003601f168201915b50505050600383015460048401546005850154600686018054959661ffff8516966001600160a01b03620100009096048616965093949092169261091a90612def565b80601f016020809104026020016040519081016040528092919081815260200182805461094690612def565b80156109915780601f1061096857610100808354040283529160200191610991565b820191905f5260205f20905b81548152906001019060200180831161097457829003601f168201915b5050505050908060070180546109a690612def565b80601f01602080910402602001604051908101604052809291908181526020018280546109d290612def565b8015610a1d5780601f106109f457610100808354040283529160200191610a1d565b820191905f5260205f20905b815481529060010190602001808311610a0057829003601f168201915b5050505050905089565b7f59a1c48e5837ad7a7f3dcedcbe129bf3249ec4fbf651fd4f5e2600ead39fe2f5610a5181611f6e565b5f8281526009602081905260409091209081015460ff1615610aa85760405162461bcd60e51b815260206004820152601060248201526f105b1c9958591e48185c1c1c9bdd995960821b604482015260640161064f565b60098101805460ff19166001179055600a80545f9182610ac783612e27565b909155506003830154909150610aec906201000090046001600160a01b031682612077565b60098201805461ff0019166101001790554260058301556006820180546001600160a01b03191633179055604080516101208101909152825481908490610b3290612def565b80601f0160208091040260200160405190810160405280929190818152602001828054610b5e90612def565b8015610ba95780601f10610b8057610100808354040283529160200191610ba9565b820191905f5260205f20905b815481529060010190602001808311610b8c57829003601f168201915b50505050508152602001836001018054610bc290612def565b80601f0160208091040260200160405190810160405280929190818152602001828054610bee90612def565b8015610c395780601f10610c1057610100808354040283529160200191610c39565b820191905f5260205f20905b815481529060010190602001808311610c1c57829003601f168201915b50505050508152602001836002018054610c5290612def565b80601f0160208091040260200160405190810160405280929190818152602001828054610c7e90612def565b8015610cc95780601f10610ca057610100808354040283529160200191610cc9565b820191905f5260205f20905b815481529060010190602001808311610cac57829003601f168201915b5050509183525050600384015461ffff811660208301526001600160a01b03620100009091048116604083015260058501546060830152600685015416608082015260078401805460a090920191610d2090612def565b80601f0160208091040260200160405190810160405280929190818152602001828054610d4c90612def565b8015610d975780601f10610d6e57610100808354040283529160200191610d97565b820191905f5260205f20905b815481529060010190602001808311610d7a57829003601f168201915b50505050508152602001836008018054610db090612def565b80601f0160208091040260200160405190810160405280929190818152602001828054610ddc90612def565b8015610e275780601f10610dfe57610100808354040283529160200191610e27565b820191905f5260205f20905b815481529060010190602001808311610e0a57829003601f168201915b5050509190925250505f82815260076020526040902081518190610e4b9082612e8f565b5060208201516001820190610e609082612e8f565b5060408201516002820190610e759082612e8f565b506060820151600382018054608085015161ffff9093166001600160b01b031990911617620100006001600160a01b039384160217905560a0830151600483015560c08301516005830180546001600160a01b0319169190921617905560e08201516006820190610ee69082612e8f565b506101008201516007820190610efc9082612e8f565b50505050505050565b5f61055f82611e37565b5f6001600160a01b038216610f39576040516322718ad960e21b81525f600482015260240161064f565b506001600160a01b03165f9081526003602052604090205490565b610fb56040518061012001604052806060815260200160608152602001606081526020015f61ffff1681526020015f6001600160a01b031681526020015f81526020015f6001600160a01b0316815260200160608152602001606081525090565b610fbe82611e37565b505f828152600760205260409081902081516101208101909252805482908290610fe790612def565b80601f016020809104026020016040519081016040528092919081815260200182805461101390612def565b801561105e5780601f106110355761010080835404028352916020019161105e565b820191905f5260205f20905b81548152906001019060200180831161104157829003601f168201915b5050505050815260200160018201805461107790612def565b80601f01602080910402602001604051908101604052809291908181526020018280546110a390612def565b80156110ee5780601f106110c5576101008083540402835291602001916110ee565b820191905f5260205f20905b8154815290600101906020018083116110d157829003601f168201915b5050505050815260200160028201805461110790612def565b80601f016020809104026020016040519081016040528092919081815260200182805461113390612def565b801561117e5780601f106111555761010080835404028352916020019161117e565b820191905f5260205f20905b81548152906001019060200180831161116157829003601f168201915b5050509183525050600382015461ffff811660208301526001600160a01b03620100009091048116604083015260048301546060830152600583015416608082015260068201805460a0909201916111d590612def565b80601f016020809104026020016040519081016040528092919081815260200182805461120190612def565b801561124c5780601f106112235761010080835404028352916020019161124c565b820191905f5260205f20905b81548152906001019060200180831161122f57829003601f168201915b5050505050815260200160078201805461126590612def565b80601f016020809104026020016040519081016040528092919081815260200182805461129190612def565b80156112dc5780601f106112b3576101008083540402835291602001916112dc565b820191905f5260205f20905b8154815290600101906020018083116112bf57829003601f168201915b5050505050815250509050919050565b5f9182526006602090815260408084206001600160a01b0393909316845291905290205460ff1690565b60606001805461057390612def565b6113a56040518061018001604052806060815260200160608152602001606081526020015f61ffff1681526020015f6001600160a01b031681526020015f6001600160a01b031681526020015f81526020015f6001600160a01b0316815260200160608152602001606081526020015f151581526020015f151581525090565b5f82815260096020526040808220815161018081019092528054829082906113cc90612def565b80601f01602080910402602001604051908101604052809291908181526020018280546113f890612def565b80156114435780601f1061141a57610100808354040283529160200191611443565b820191905f5260205f20905b81548152906001019060200180831161142657829003601f168201915b5050505050815260200160018201805461145c90612def565b80601f016020809104026020016040519081016040528092919081815260200182805461148890612def565b80156114d35780601f106114aa576101008083540402835291602001916114d3565b820191905f5260205f20905b8154815290600101906020018083116114b657829003601f168201915b505050505081526020016002820180546114ec90612def565b80601f016020809104026020016040519081016040528092919081815260200182805461151890612def565b80156115635780601f1061153a57610100808354040283529160200191611563565b820191905f5260205f20905b81548152906001019060200180831161154657829003601f168201915b5050509183525050600382015461ffff811660208301526001600160a01b0362010000909104811660408301526004830154811660608301526005830154608083015260068301541660a082015260078201805460c0909201916115c690612def565b80601f01602080910402602001604051908101604052809291908181526020018280546115f290612def565b801561163d5780601f106116145761010080835404028352916020019161163d565b820191905f5260205f20905b81548152906001019060200180831161162057829003601f168201915b5050505050815260200160088201805461165690612def565b80601f016020809104026020016040519081016040528092919081815260200182805461168290612def565b80156116cd5780601f106116a4576101008083540402835291602001916116cd565b820191905f5260205f20905b8154815290600101906020018083116116b057829003601f168201915b50505091835250506009919091015460ff8082161515602084015261010090910416151560409091015290506117237f59a1c48e5837ad7a7f3dcedcbe129bf3249ec4fbf651fd4f5e2600ead39fe2f5336112ec565b8061174357508060a001516001600160a01b0316336001600160a01b0316145b80611763575080608001516001600160a01b0316336001600160a01b0316145b61055f5760405162461bcd60e51b815260206004820152602360248201527f4e6f7420617574686f72697a656420746f207669657720746869732072657175604482015262195cdd60ea1b606482015260840161064f565b610626338383612090565b6117d184848461062a565b6106b2338585858561212e565b60606117e982611e37565b505f6117ff60408051602081019091525f815290565b90505f81511161181d5760405180602001604052805f815250611848565b8061182784612256565b604051602001611838929190612f61565b6040516020818303038152906040525b9392505050565b5f8281526006602052604090206001015461186981611f6e565b6106b2838361200c565b5f61189e7fcf75f067314df4d0527f2a9e12148d8bd7c8a3f7235b2171d24fa195d2c3ecb9336112ec565b806118ce57506118ce7fb19546dff01e856fb3f010c267a7b1c60363cf8a4664e21cc89c26224620214e336112ec565b6119295760405162461bcd60e51b815260206004820152602660248201527f4e6f7420617574686f72697a656420746f2072657175657374207265676973746044820152653930ba34b7b760d11b606482015260840161064f565b600880545f918261193983612e27565b9091555060408051610180810182528b815260208082018c90528183018b905261ffff8a1660608301526001600160a01b03891660808301523360a08301525f60c0830181905260e0830181905261010083018990526101208301889052610140830181905261016083018190528481526009909152919091208151929350909181906119c69082612e8f565b50602082015160018201906119db9082612e8f565b50604082015160028201906119f09082612e8f565b50606082015160038201805460808501516001600160a01b0390811662010000026001600160b01b031990921661ffff9094169390931717905560a08301516004830180549183166001600160a01b031992831617905560c0840151600584015560e08401516006840180549190931691161790556101008201516007820190611a7a9082612e8f565b506101208201516008820190611a909082612e8f565b50610140820151600990910180546101609093015115156101000261ff00199215159290921661ffff19909316929092171790559050979650505050505050565b6001600160a01b039182165f90815260056020908152604080832093909416825291909152205460ff1690565b60096020525f9081526040902080548190611b1890612def565b80601f0160208091040260200160405190810160405280929190818152602001828054611b4490612def565b8015611b8f5780601f10611b6657610100808354040283529160200191611b8f565b820191905f5260205f20905b815481529060010190602001808311611b7257829003601f168201915b505050505090806001018054611ba490612def565b80601f0160208091040260200160405190810160405280929190818152602001828054611bd090612def565b8015611c1b5780601f10611bf257610100808354040283529160200191611c1b565b820191905f5260205f20905b815481529060010190602001808311611bfe57829003601f168201915b505050505090806002018054611c3090612def565b80601f0160208091040260200160405190810160405280929190818152602001828054611c5c90612def565b8015611ca75780601f10611c7e57610100808354040283529160200191611ca7565b820191905f5260205f20905b815481529060010190602001808311611c8a57829003601f168201915b5050506003840154600485015460058601546006870154600788018054979861ffff8616986001600160a01b036201000090970487169850948616965092949190911692611cf490612def565b80601f0160208091040260200160405190810160405280929190818152602001828054611d2090612def565b8015611d6b5780601f10611d4257610100808354040283529160200191611d6b565b820191905f5260205f20905b815481529060010190602001808311611d4e57829003601f168201915b505050505090806008018054611d8090612def565b80601f0160208091040260200160405190810160405280929190818152602001828054611dac90612def565b8015611df75780601f10611dce57610100808354040283529160200191611df7565b820191905f5260205f20905b815481529060010190602001808311611dda57829003601f168201915b5050506009909301549192505060ff808216916101009004168c565b5f6001600160e01b03198216637965db0b60e01b148061055f575061055f826122e7565b5f818152600260205260408120546001600160a01b03168061055f57604051637e27328960e01b81526004810184905260240161064f565b61070f8383836001612336565b5f828152600260205260408120546001600160a01b0390811690831615611ea857611ea881848661243a565b6001600160a01b03811615611ee257611ec35f855f5f612336565b6001600160a01b0381165f90815260036020526040902080545f190190555b6001600160a01b03851615611f10576001600160a01b0385165f908152600360205260409020805460010190555b5f8481526002602052604080822080546001600160a01b0319166001600160a01b0389811691821790925591518793918516917fddf252ad1be2c89b69c2b068fc378daa952ba7f163c4a11628f55a4df523b3ef91a4949350505050565b611f78813361249e565b50565b5f611f8683836112ec565b612005575f8381526006602090815260408083206001600160a01b03861684529091529020805460ff19166001179055611fbd3390565b6001600160a01b0316826001600160a01b0316847f2f8788117e7eff1d82e926ec794901d17c78024a50270940304540a733656f0d60405160405180910390a450600161055f565b505f61055f565b5f61201783836112ec565b15612005575f8381526006602090815260408083206001600160a01b0386168085529252808320805460ff1916905551339286917ff6391f5c32d9c69d2a47ea670b442974b53935d1edc7fd64eb21e047a839171b9190a450600161055f565b610626828260405180602001604052805f8152506124d7565b6001600160a01b0382166120c257604051630b61174360e31b81526001600160a01b038316600482015260240161064f565b6001600160a01b038381165f81815260056020908152604080832094871680845294825291829020805460ff191686151590811790915591519182527f17307eab39ab6107e8899845ad3d59bd9653f200f220920489ca2b5937696c31910160405180910390a3505050565b6001600160a01b0383163b1561224f57604051630a85bd0160e11b81526001600160a01b0384169063150b7a0290612170908890889087908790600401612f75565b6020604051808303815f875af19250505080156121aa575060408051601f3d908101601f191682019092526121a791810190612fb1565b60015b612211573d8080156121d7576040519150601f19603f3d011682016040523d82523d5f602084013e6121dc565b606091505b5080515f0361220957604051633250574960e11b81526001600160a01b038516600482015260240161064f565b805160208201fd5b6001600160e01b03198116630a85bd0160e11b1461224d57604051633250574960e11b81526001600160a01b038516600482015260240161064f565b505b5050505050565b60605f612262836124ee565b60010190505f8167ffffffffffffffff81111561228157612281612ac0565b6040519080825280601f01601f1916602001820160405280156122ab576020820181803683370190505b5090508181016020015b5f19016f181899199a1a9b1b9c1cb0b131b232b360811b600a86061a8153600a85049450846122b5575b509392505050565b5f6001600160e01b031982166380ac58cd60e01b148061231757506001600160e01b03198216635b5e139f60e01b145b8061055f57506301ffc9a760e01b6001600160e01b031983161461055f565b808061234a57506001600160a01b03821615155b1561240b575f61235984611e37565b90506001600160a01b038316158015906123855750826001600160a01b0316816001600160a01b031614155b801561239857506123968184611ad1565b155b156123c15760405163a9fbf51f60e01b81526001600160a01b038416600482015260240161064f565b81156124095783856001600160a01b0316826001600160a01b03167f8c5be1e5ebec7d5bd14f71427d1e84f3dd0314c0f7b2291e5b200ac8c7c3b92560405160405180910390a45b505b50505f90815260046020526040902080546001600160a01b0319166001600160a01b0392909216919091179055565b6124458383836125c5565b61070f576001600160a01b03831661247357604051637e27328960e01b81526004810182905260240161064f565b60405163177e802f60e01b81526001600160a01b03831660048201526024810182905260440161064f565b6124a882826112ec565b6106265760405163e2517d3f60e01b81526001600160a01b03821660048201526024810183905260440161064f565b6124e18383612629565b61070f335f85858561212e565b5f8072184f03e93ff9f4daa797ed6e38ed64bf6a1f0160401b831061252c5772184f03e93ff9f4daa797ed6e38ed64bf6a1f0160401b830492506040015b6d04ee2d6d415b85acef81000000008310612558576d04ee2d6d415b85acef8100000000830492506020015b662386f26fc10000831061257657662386f26fc10000830492506010015b6305f5e100831061258e576305f5e100830492506008015b61271083106125a257612710830492506004015b606483106125b4576064830492506002015b600a831061055f5760010192915050565b5f6001600160a01b038316158015906126215750826001600160a01b0316846001600160a01b031614806125fe57506125fe8484611ad1565b8061262157505f828152600460205260409020546001600160a01b038481169116145b949350505050565b6001600160a01b03821661265257604051633250574960e11b81525f600482015260240161064f565b5f61265e83835f611e7c565b90506001600160a01b0381161561070f576040516339e3563760e11b81525f600482015260240161064f565b6001600160e01b031981168114611f78575f5ffd5b5f602082840312156126af575f5ffd5b81356118488161268a565b5f81518084528060208401602086015e5f602082860101526020601f19601f83011685010191505092915050565b602081525f61184860208301846126ba565b5f6020828403121561270a575f5ffd5b5035919050565b80356001600160a01b0381168114612727575f5ffd5b919050565b5f5f6040838503121561273d575f5ffd5b61274683612711565b946020939093013593505050565b5f5f5f60608486031215612766575f5ffd5b61276f84612711565b925061277d60208501612711565b929592945050506040919091013590565b5f5f6040838503121561279f575f5ffd5b823591506127af60208401612711565b90509250929050565b61012081525f6127cc61012083018c6126ba565b82810360208401526127de818c6126ba565b905082810360408401526127f2818b6126ba565b61ffff8a1660608501526001600160a01b03898116608086015260a08501899052871660c085015283810360e0850152905061282e81866126ba565b905082810361010084015261284381856126ba565b9c9b505050505050505050505050565b5f60208284031215612863575f5ffd5b61184882612711565b602081525f825161012060208401526128896101408401826126ba565b90506020840151601f198483030160408501526128a682826126ba565b9150506040840151601f198483030160608501526128c482826126ba565b91505060608401516128dc608085018261ffff169052565b5060808401516001600160a01b03811660a08501525060a084015160c084015260c084015161291660e08501826001600160a01b03169052565b5060e0840151838203601f190161010085015261293382826126ba565b915050610100840151601f198483030161012085015261295382826126ba565b95945050505050565b602081525f825161018060208401526129796101a08401826126ba565b90506020840151601f1984830301604085015261299682826126ba565b9150506040840151601f198483030160608501526129b482826126ba565b91505060608401516129cc608085018261ffff169052565b5060808401516001600160a01b03811660a08501525060a08401516001600160a01b03811660c08501525060c084015160e084015260e0840151612a1c6101008501826001600160a01b03169052565b50610100840151838203601f1901610120850152612a3a82826126ba565b915050610120840151601f1984830301610140850152612a5a82826126ba565b915050610140840151612a7261016085018215159052565b506101608401518015156101808501526122df565b5f5f60408385031215612a98575f5ffd5b612aa183612711565b915060208301358015158114612ab5575f5ffd5b809150509250929050565b634e487b7160e01b5f52604160045260245ffd5b5f5f67ffffffffffffffff841115612aee57612aee612ac0565b50604051601f19601f85018116603f0116810181811067ffffffffffffffff82111715612b1d57612b1d612ac0565b604052838152905080828401851015612b34575f5ffd5b838360208301375f60208583010152509392505050565b5f5f5f5f60808587031215612b5e575f5ffd5b612b6785612711565b9350612b7560208601612711565b925060408501359150606085013567ffffffffffffffff811115612b97575f5ffd5b8501601f81018713612ba7575f5ffd5b612bb687823560208401612ad4565b91505092959194509250565b5f82601f830112612bd1575f5ffd5b61184883833560208501612ad4565b803561ffff81168114612727575f5ffd5b5f5f5f5f5f5f5f60e0888a031215612c07575f5ffd5b873567ffffffffffffffff811115612c1d575f5ffd5b612c298a828b01612bc2565b975050602088013567ffffffffffffffff811115612c45575f5ffd5b612c518a828b01612bc2565b965050604088013567ffffffffffffffff811115612c6d575f5ffd5b612c798a828b01612bc2565b955050612c8860608901612be0565b9350612c9660808901612711565b925060a088013567ffffffffffffffff811115612cb1575f5ffd5b612cbd8a828b01612bc2565b92505060c088013567ffffffffffffffff811115612cd9575f5ffd5b612ce58a828b01612bc2565b91505092959891949750929550565b5f5f60408385031215612d05575f5ffd5b612d0e83612711565b91506127af60208401612711565b61018081525f612d3061018083018f6126ba565b8281036020840152612d42818f6126ba565b90508281036040840152612d56818e6126ba565b61ffff8d16606085015290506001600160a01b038b1660808401526001600160a01b038a1660a08401528860c0840152612d9b60e08401896001600160a01b03169052565b828103610100840152612dae81886126ba565b9050828103610120840152612dc381876126ba565b915050612dd561014083018515159052565b8215156101608301529d9c50505050505050505050505050565b600181811c90821680612e0357607f821691505b602082108103612e2157634e487b7160e01b5f52602260045260245ffd5b50919050565b5f60018201612e4457634e487b7160e01b5f52601160045260245ffd5b5060010190565b601f82111561070f57805f5260205f20601f840160051c81016020851015612e705750805b601f840160051c820191505b8181101561224f575f8155600101612e7c565b815167ffffffffffffffff811115612ea957612ea9612ac0565b612ebd81612eb78454612def565b84612e4b565b6020601f821160018114612eef575f8315612ed85750848201515b5f19600385901b1c1916600184901b17845561224f565b5f84815260208120601f198516915b82811015612f1e5787850151825560209485019460019092019101612efe565b5084821015612f3b57868401515f19600387901b60f8161c191681555b50505050600190811b01905550565b5f81518060208401855e5f93019283525090919050565b5f612621612f6f8386612f4a565b84612f4a565b6001600160a01b03858116825284166020820152604081018390526080606082018190525f90612fa7908301846126ba565b9695505050505050565b5f60208284031215612fc1575f5ffd5b81516118488161268a56fea2646970667358221220b16dbddbe0107e4feeb966a84ad44790e44a33be18d97733563976a2775bd34164736f6c634300081c0033",
  "linkReferences": {},
  "deployedLinkReferences": {},
  "immutableReferences": {},
  "inputSourceName": "project/contracts/VehicleRegistry.sol",
  "buildInfoId": "solc-0_8_28-c2e76bcb013b215f3a3496eea0fbb955f1eefea2"
}